:100000007BEF03F00000000000EF00F000000000B4
:0A0010000000000000000000F3D71C
:10001C00220E0C6E086A096A0A6A0B6A0C06D8B4BE
:10002C001FD0D8900B320A32093208320332023216
:10003C0001320032D8A0F2D70C06D8B409D0045043
:10004C0008260550092206500A2207500B22EAD72F
:10005C00045008260550092206500A2207500B228C
:02006C00120080
:10006E000134083609360450085E0550D8A0053C08
:10007E00095E003601360F0E0C6E01340836093655
:10008E00045000A006D0085E0550D8A0053C095EBD
:10009E0005D008260550D8B0053C09260036013695
:1000AE000C2EEBD700B006D0045008260550D8B061
:0800BE00053C092600001200B8
:1000C60069C2DFF16AC2E0F1000E0101E16FE26F81
:0600D600010EE36F1200B1
:1000DC000101E35306E1010E0201696F000E6A6F24
:1000EC00ECDFDFC100F0E0C101F0E1C102F0E2C1E0
:1000FC0003F06D0E046E4E0E056EC60E066E410EAE
:10010C00076E86DF390E0024056E300E0120066E58
:10011C00000E0220076E000E0320086E07C000F0D0
:10012C0008C001F0000E08BEFF0E026E036EFF0E3B
:10013C0000167F0E0116000E0216031600C0DFF12A
:0E014C0001C0E0F102C0E1F103C0E2F11200D7
:10015A000450000A08E10550000A05E1FF0E006E8E
:10016A007F0E016E57D00D6A096A086A01500010A5
:10017A00D8B4000C015005180A6E0ABE0D1E0B6A8F
:10018A0005AE05D0041E051E042AD8B4052A01AE00
:10019A0005D0001E011E002AD8B4012A01500510FC
:1001AA000A6E0ABE10D05EDF0BB020D00DAE000C76
:1001BA00001E011E002AD8B4012A081E091E082A98
:1001CA00D8B4092A000C05AE0DD001BE07D00150E3
:1001DA00096E0050086E016A006AE8D7016A006A6F
:1001EA00002A000C011E001E0B2ADDD7082AD8B4EB
:1001FA00092A0450085CD8A4D9D70550095CD8A4A8
:10020A00D5D7096A086A002AD8B4012A01AECED71E
:06021A000000FF0C1200C1
:100220000B6A0A6A096A00500402F4CF09F0F3CF9E
:1002300008F001500502F4CF0BF0F3CF0AF00050A4
:100240000502F3500926F4500A22E86A0B220150F5
:100250000402F3500926F4500A22E86A0B2208C06F
:1002600000F009C001F00AC002F00BC003F0120058
:1002700065C268F2020167516525016E000E65BF17
:10028000FF0E026E000E67BFFF0E0222800E68BFD7
:100290007F0E006E800E0218005C02E10150685D66
:1002A0002EE21E0E006E000E016E68C204F0000EFB
:1002B00068BFFF0E056EB4DF150E0024036E000E3E
:1002C0000120046E66C200F0000E66BFFF0E016ED4
:1002D00000360090013600500324E96E01500420DE
:1002E000EA6EEECF01F0EECF02F0000E021802E14E
:1002F000010E011802E1006A04D0682BBBD7010E81
:04030000006E120079
:10030400EBDE65C204F0000E020165BFFF0E056E50
:0C03140022DF08C000F009C001F0120058
:1003200002015F6B606B800E6019006E800E005CD6
:1003300002E10F0E5F5D2FE2616B626B800E62194E
:10034000006E800E005C02E10F0E615D21E21E0E68
:10035000006E000E016E5FC204F060C205F060DF47
:10036000150E0024036E000E0120046E61C200F021
:1003700062C201F000360090013600500324E16EA5
:1003800001500420E26EE66AE66A614B622BD6D722
:080390005F4B602BC8D712007F
:10039800FF0E0101D76FFF0ED86FFF0ED96FFF0E4A
:1003A800DA6FFF0EDB6FFF0EDC6F000EDD6F000EE5
:1003B800DE6FFF0EE46FFF0EE56F000EE66F000EB6
:1003C800E76FFF0E02013F6FFF0E406F000E416F97
:1003D800000E426FAC8A900EAB6E948E949C9EAACF
:0A03E80003D0AECF00F0FBD71200E7
:1003F200020161510F08656F84DF00C062F20201E1
:1004020061510F08656F7DDF00C063F262C265F261
:1004120000C066F261C267F22ADF0052E9E062C2FE
:1004220064F261516225016E000E62BFFF0E026E20
:10043200000E61BFFF0E0222800E64BF7F0E006EAF
:10044200800E0218005C02E10150645D26E21E0E7D
:10045200006E000E016E64C204F0000E64BFFF0E57
:10046200056EDDDE150E0024036E000E0120046E03
:1004720063C200F0000E63BFFF0E016E00360090F3
:10048200013600500324E16E01500420E26E010E99
:10049200E66E000EE66E642BC4D7646B800E6419A0
:1004A200006E800E6119005C45E264C200F0000E2D
:1004B20064BFFF0E016E00360090013600360090D8
:1004C20001365F51002660510122010E0024E16EC7
:1004D200000E0120E26E62C2E6FF64C200F0000E6E
:1004E20064BFFF0E016E00360090013600360090A8
:1004F200013600505F25E16E01506021E26E63C259
:10050200E6FF64C200F0000E64BFFF0E016E00360B
:10051200009001360036009001365F51002660518E
:100522000122020E0024E16E000E0120E26EE66A54
:06053200642BB4D7120097
:100538000900F5CFE6FF0006FBE10106F9E112002C
:100548003C0EAF6EAC8424DFE7DE5E6B800E5E1976
:10055800006E800E020A005C2CE2150E006E000E82
:10056800016E5EC204F0000E5EBFFF0E056E54DE23
:10057800150E00245F6F020E0120606F050E616F7B
:1005880034DF150E006E000E016E5EC204F0000E20
:100598005EBFFF0E056E40DE150E0026020E01221C
:1005A800140E0024E16E000E0120E26EE66A5E2B56
:1005B800CDD75E6B800E5E19006E800E010A005C5E
:1005C8002CE2190E006E000E016E5EC204F0000EE1
:1005D8005EBFFF0E056E20DEE80E00245F6F010E81
:1005E8000120606F060E616F00DF190E006E000EAD
:1005F800016E5EC204F0000E5EBFFF0E056E0CDEDB
:10060800E80E0026010E0122180E0024E16E000EED
:100618000120E26EE66A5E2BCDD75E6B800E5E1916
:10062800006E800E040A005C2CE2050E006E000EBF
:10063800016E5EC204F0000E5EBFFF0E056EECDDBB
:10064800010E00245F6F020E0120606F010E616FC2
:10065800CCDE050E006E000E016E5EC204F0000EC8
:100668005EBFFF0E056ED8DD010E0026020E0122C8
:10067800040E0024E16E000E0120E26EE66A5E2B95
:10068800CDD75E6B800E5E19006E800E030A005C8B
:100698002CE2090E006E000E016E5EC204F0000E20
:1006A8005EBFFF0E056EB8DD430E00245F6F020EBD
:1006B8000120606F020E616F98DE090E006E000E59
:1006C800016E5EC204F0000E5EBFFF0E056EA4DD73
:1006D800430E0026020E0122080E0024E16E000ED1
:0C06E8000120E26EE66A5E2BCDD7120006
:0206F4001200F2
:0E06F60063EC04F026DFFBDF0052FDE0FFD7CF
:1008C60010EE15F0C20E006E020E016E040EF66EEC
:0E08D600070EF76E000EF86E9CEC02F012009A
:1007040000000000000000000000000000000000E5
:1007140000000000000000000000000000000000D5
:1007240000000000000000000000000000000000C5
:1007340000000000000000000000000000000000B5
:1007440000000000000000000000000000000000A5
:100754000000000000000000000000000000000095
:100764000000000000000000000000000000000085
:100774000000000000000000000000000000000075
:100784000000000000000000000000000000000065
:100794000000000000000000000000000000000055
:1007A4000000000000000000000000000000000045
:1007B4000000000000000000000000000000000035
:1007C4000000000000000000000000000000000025
:1007D4000000000000000000000000000000000015
:1007E4000000000000000000000000000000000005
:1007F40000000000000000000000000000000000F5
:1008040000000000000000000000000000000000E4
:1008140000000000000000000000000000000000D4
:1008240000000000000000000000000000000000C4
:1008340000000000000000000000000000000000B4
:1008440000000000000000000000000000000000A4
:100854000000000000000000000000000000000094
:100864000000000000000000000000000000000084
:100874000000000000000000000000000000000074
:100884000000000000000000000000000000000064
:100894000000000000000000000000000000000054
:1008A4000000000000000000000000000000000044
:1008B4000000000000000000000000000000000034
:0208C400000032
:020000040030CA
:0D000100220F0EFF0181FF0FC00FE00F4026
:00000001FF
